{
  "_format": "hh-sol-artifact-1",
  "contractName": "SherClaim",
  "sourceName": "contracts/SherClaim.sol",
  "abi": [
    {
      "inputs": [
        {
          "internalType": "contract IERC20",
          "name": "_sher",
          "type": "address"
        },
        {
          "internalType": "uint256",
          "name": "_claimableAt",
          "type": "uint256"
        }
      ],
      "stateMutability": "nonpayable",
      "type": "constructor"
    },
    {
      "inputs": [],
      "name": "InvalidAmount",
      "type": "error"
    },
    {
      "inputs": [],
      "name": "InvalidState",
      "type": "error"
    },
    {
      "inputs": [],
      "name": "ZeroArgument",
      "type": "error"
    },
    {
      "anonymous": false,
      "inputs": [
        {
          "indexed": true,
          "internalType": "address",
          "name": "sender",
          "type": "address"
        },
        {
          "indexed": true,
          "internalType": "address",
          "name": "account",
          "type": "address"
        },
        {
          "indexed": false,
          "internalType": "uint256",
          "name": "amount",
          "type": "uint256"
        }
      ],
      "name": "Add",
      "type": "event"
    },
    {
      "anonymous": false,
      "inputs": [
        {
          "indexed": true,
          "internalType": "address",
          "name": "account",
          "type": "address"
        },
        {
          "indexed": false,
          "internalType": "uint256",
          "name": "amount",
          "type": "uint256"
        }
      ],
      "name": "Claim",
      "type": "event"
    },
    {
      "inputs": [],
      "name": "active",
      "outputs": [
        {
          "internalType": "bool",
          "name": "",
          "type": "bool"
        }
      ],
      "stateMutability": "view",
      "type": "function"
    },
    {
      "inputs": [
        {
          "internalType": "address",
          "name": "_user",
          "type": "address"
        },
        {
          "internalType": "uint256",
          "name": "_amount",
          "type": "uint256"
        }
      ],
      "name": "add",
      "outputs": [],
      "stateMutability": "nonpayable",
      "type": "function"
    },
    {
      "inputs": [],
      "name": "claim",
      "outputs": [],
      "stateMutability": "nonpayable",
      "type": "function"
    },
    {
      "inputs": [],
      "name": "claimableAt",
      "outputs": [
        {
          "internalType": "uint256",
          "name": "",
          "type": "uint256"
        }
      ],
      "stateMutability": "view",
      "type": "function"
    },
    {
      "inputs": [],
      "name": "sher",
      "outputs": [
        {
          "internalType": "contract IERC20",
          "name": "",
          "type": "address"
        }
      ],
      "stateMutability": "view",
      "type": "function"
    },
    {
      "inputs": [
        {
          "internalType": "address",
          "name": "",
          "type": "address"
        }
      ],
      "name": "userClaims",
      "outputs": [
        {
          "internalType": "uint256",
          "name": "",
          "type": "uint256"
        }
      ],
      "stateMutability": "view",
      "type": "function"
    }
  ],
  "bytecode": "0x60c060405234801561001057600080fd5b50604051610b83380380610b8383398101604081905261002f916100c6565b6001600160a01b0382166100565760405163b7852ebb60e01b815260040160405180910390fd5b61006362093a8042610100565b8110156100835760405163baf3f0f760e01b815260040160405180910390fd5b6100906212750042610100565b8111156100b05760405163baf3f0f760e01b815260040160405180910390fd5b6001600160a01b0390911660a052608052610126565b600080604083850312156100d957600080fd5b82516001600160a01b03811681146100f057600080fd5b6020939093015192949293505050565b6000821982111561012157634e487b7160e01b600052601160045260246000fd5b500190565b60805160a051610a1861016b6000396000818160f101528181610222015261038d015260008181607c0152818160bc0152818161016d015261031c0152610a186000f3fe608060405234801561001057600080fd5b50600436106100725760003560e01c8063937840b011610050578063937840b0146100ec578063f0a3563c14610138578063f5d82b6b1461015857600080fd5b806302fb0c5e146100775780634e71d92d146100ad57806391e0a8aa146100b7575b600080fd5b6040517f000000000000000000000000000000000000000000000000000000000000000042101581526020015b60405180910390f35b6100b561016b565b005b6100de7f000000000000000000000000000000000000000000000000000000000000000081565b6040519081526020016100a4565b6101137f000000000000000000000000000000000000000000000000000000000000000081565b60405173ffffffffffffffffffffffffffffffffffffffff90911681526020016100a4565b6100de6101463660046108a3565b60006020819052908152604090205481565b6100b56101663660046108be565b610296565b7f00000000000000000000000000000000000000000000000000000000000000004210156101c5576040517fbaf3f0f700000000000000000000000000000000000000000000000000000000815260040160405180910390fd5b336000908152602081905260409020548061020c576040517f2c5211c600000000000000000000000000000000000000000000000000000000815260040160405180910390fd5b3360008181526020819052604081205561025e907f000000000000000000000000000000000000000000000000000000000000000073ffffffffffffffffffffffffffffffffffffffff169083610440565b60405181815233907f47cee97cb7acd717b3c0aa1435d004cd5b3c8c57d70dbceb4e4458bbd60e39d49060200160405180910390a250565b73ffffffffffffffffffffffffffffffffffffffff82166102e3576040517fb7852ebb00000000000000000000000000000000000000000000000000000000815260040160405180910390fd5b8061031a576040517fb7852ebb00000000000000000000000000000000000000000000000000000000815260040160405180910390fd5b7f00000000000000000000000000000000000000000000000000000000000000004210610373576040517fbaf3f0f700000000000000000000000000000000000000000000000000000000815260040160405180910390fd5b6103b573ffffffffffffffffffffffffffffffffffffffff7f000000000000000000000000000000000000000000000000000000000000000016333084610519565b73ffffffffffffffffffffffffffffffffffffffff8216600090815260208190526040812080548392906103ea9084906108e8565b909155505060405181815273ffffffffffffffffffffffffffffffffffffffff83169033907f5f43b6be860b00b28d44981331005a0503e6b566155ca1423af4299a6bde1f469060200160405180910390a35050565b60405173ffffffffffffffffffffffffffffffffffffffff83166024820152604481018290526105149084907fa9059cbb00000000000000000000000000000000000000000000000000000000906064015b604080517fffffffffffffffffffffffffffffffffffffffffffffffffffffffffffffffe08184030181529190526020810180517bffffffffffffffffffffffffffffffffffffffffffffffffffffffff167fffffffff000000000000000000000000000000000000000000000000000000009093169290921790915261057d565b505050565b60405173ffffffffffffffffffffffffffffffffffffffff808516602483015283166044820152606481018290526105779085907f23b872dd0000000000000000000000000000000000000000000000000000000090608401610492565b50505050565b60006105df826040518060400160405280602081526020017f5361666545524332303a206c6f772d6c6576656c2063616c6c206661696c65648152508573ffffffffffffffffffffffffffffffffffffffff1661068e9092919063ffffffff16565b80519091501561051457808060200190518101906105fd9190610927565b610514576040517f08c379a000000000000000000000000000000000000000000000000000000000815260206004820152602a60248201527f5361666545524332303a204552433230206f7065726174696f6e20646964206e60448201527f6f7420737563636565640000000000000000000000000000000000000000000060648201526084015b60405180910390fd5b606061069d84846000856106a7565b90505b9392505050565b606082471015610739576040517f08c379a000000000000000000000000000000000000000000000000000000000815260206004820152602660248201527f416464726573733a20696e73756666696369656e742062616c616e636520666f60448201527f722063616c6c00000000000000000000000000000000000000000000000000006064820152608401610685565b843b6107a1576040517f08c379a000000000000000000000000000000000000000000000000000000000815260206004820152601d60248201527f416464726573733a2063616c6c20746f206e6f6e2d636f6e74726163740000006044820152606401610685565b6000808673ffffffffffffffffffffffffffffffffffffffff1685876040516107ca9190610975565b60006040518083038185875af1925050503d8060008114610807576040519150601f19603f3d011682016040523d82523d6000602084013e61080c565b606091505b509150915061081c828286610827565b979650505050505050565b606083156108365750816106a0565b8251156108465782518084602001fd5b816040517f08c379a00000000000000000000000000000000000000000000000000000000081526004016106859190610991565b803573ffffffffffffffffffffffffffffffffffffffff8116811461089e57600080fd5b919050565b6000602082840312156108b557600080fd5b6106a08261087a565b600080604083850312156108d157600080fd5b6108da8361087a565b946020939093013593505050565b60008219821115610922577f4e487b7100000000000000000000000000000000000000000000000000000000600052601160045260246000fd5b500190565b60006020828403121561093957600080fd5b815180151581146106a057600080fd5b60005b8381101561096457818101518382015260200161094c565b838111156105775750506000910152565b60008251610987818460208701610949565b9190910192915050565b60208152600082518060208401526109b0816040850160208701610949565b601f017fffffffffffffffffffffffffffffffffffffffffffffffffffffffffffffffe016919091016040019291505056fea26469706673582212208a6ab8935f0fcc8d42eb56692d1a77b70efa0db1aa564d62b3e6f6d041c7867b64736f6c634300080a0033",
  "linkReferences": {},
  "deployedLinkReferences": {}
}