{
  "_format": "hh-sol-artifact-1",
  "contractName": "Sherlock",
  "sourceName": "contracts/Sherlock.sol",
  "abi": [
    {
      "inputs": [
        {
          "internalType": "contract IERC20",
          "name": "_token",
          "type": "address"
        },
        {
          "internalType": "contract IERC20",
          "name": "_sher",
          "type": "address"
        },
        {
          "internalType": "string",
          "name": "_name",
          "type": "string"
        },
        {
          "internalType": "string",
          "name": "_symbol",
          "type": "string"
        },
        {
          "internalType": "contract IStrategyManager",
          "name": "_yieldStrategy",
          "type": "address"
        },
        {
          "internalType": "contract ISherDistributionManager",
          "name": "_sherDistributionManager",
          "type": "address"
        },
        {
          "internalType": "address",
          "name": "_nonStakersAddress",
          "type": "address"
        },
        {
          "internalType": "contract ISherlockProtocolManager",
          "name": "_sherlockProtocolManager",
          "type": "address"
        },
        {
          "internalType": "contract ISherlockClaimManager",
          "name": "_sherlockClaimManager",
          "type": "address"
        },
        {
          "internalType": "uint256[]",
          "name": "_initialstakingPeriods",
          "type": "uint256[]"
        }
      ],
      "stateMutability": "nonpayable",
      "type": "constructor"
    },
    {
      "inputs": [],
      "name": "InvalidArgument",
      "type": "error"
    },
    {
      "inputs": [],
      "name": "InvalidConditions",
      "type": "error"
    },
    {
      "inputs": [
        {
          "internalType": "uint256",
          "name": "expected",
          "type": "uint256"
        },
        {
          "internalType": "uint256",
          "name": "actual",
          "type": "uint256"
        }
      ],
      "name": "InvalidSherAmount",
      "type": "error"
    },
    {
      "inputs": [],
      "name": "NonExistent",
      "type": "error"
    },
    {
      "inputs": [],
      "name": "Unauthorized",
      "type": "error"
    },
    {
      "inputs": [],
      "name": "ZeroArgument",
      "type": "error"
    },
    {
      "anonymous": false,
      "inputs": [
        {
          "indexed": true,
          "internalType": "address",
          "name": "owner",
          "type": "address"
        },
        {
          "indexed": true,
          "internalType": "address",
          "name": "approved",
          "type": "address"
        },
        {
          "indexed": true,
          "internalType": "uint256",
          "name": "tokenId",
          "type": "uint256"
        }
      ],
      "name": "Approval",
      "type": "event"
    },
    {
      "anonymous": false,
      "inputs": [
        {
          "indexed": true,
          "internalType": "address",
          "name": "owner",
          "type": "address"
        },
        {
          "indexed": true,
          "internalType": "address",
          "name": "operator",
          "type": "address"
        },
        {
          "indexed": false,
          "internalType": "bool",
          "name": "approved",
          "type": "bool"
        }
      ],
      "name": "ApprovalForAll",
      "type": "event"
    },
    {
      "anonymous": false,
      "inputs": [
        {
          "indexed": true,
          "internalType": "uint256",
          "name": "tokenID",
          "type": "uint256"
        },
        {
          "indexed": false,
          "internalType": "uint256",
          "name": "reward",
          "type": "uint256"
        }
      ],
      "name": "ArbRestaked",
      "type": "event"
    },
    {
      "anonymous": false,
      "inputs": [
        {
          "indexed": false,
          "internalType": "contract ISherlockClaimManager",
          "name": "previous",
          "type": "address"
        },
        {
          "indexed": false,
          "internalType": "contract ISherlockClaimManager",
          "name": "current",
          "type": "address"
        }
      ],
      "name": "ClaimManagerUpdated",
      "type": "event"
    },
    {
      "anonymous": false,
      "inputs": [
        {
          "indexed": false,
          "internalType": "address",
          "name": "receiver",
          "type": "address"
        },
        {
          "indexed": false,
          "internalType": "uint256",
          "name": "amount",
          "type": "uint256"
        }
      ],
      "name": "ClaimPayout",
      "type": "event"
    },
    {
      "anonymous": false,
      "inputs": [
        {
          "indexed": false,
          "internalType": "address",
          "name": "previous",
          "type": "address"
        },
        {
          "indexed": false,
          "internalType": "address",
          "name": "current",
          "type": "address"
        }
      ],
      "name": "NonStakerAddressUpdated",
      "type": "event"
    },
    {
      "anonymous": false,
      "inputs": [
        {
          "indexed": true,
          "internalType": "address",
          "name": "previousOwner",
          "type": "address"
        },
        {
          "indexed": true,
          "internalType": "address",
          "name": "newOwner",
          "type": "address"
        }
      ],
      "name": "OwnershipTransferred",
      "type": "event"
    },
    {
      "anonymous": false,
      "inputs": [
        {
          "indexed": false,
          "internalType": "address",
          "name": "account",
          "type": "address"
        }
      ],
      "name": "Paused",
      "type": "event"
    },
    {
      "anonymous": false,
      "inputs": [
        {
          "indexed": false,
          "internalType": "contract ISherlockProtocolManager",
          "name": "previous",
          "type": "address"
        },
        {
          "indexed": false,
          "internalType": "contract ISherlockProtocolManager",
          "name": "current",
          "type": "address"
        }
      ],
      "name": "ProtocolManagerUpdated",
      "type": "event"
    },
    {
      "anonymous": false,
      "inputs": [
        {
          "indexed": true,
          "internalType": "uint256",
          "name": "tokenID",
          "type": "uint256"
        }
      ],
      "name": "Restaked",
      "type": "event"
    },
    {
      "anonymous": false,
      "inputs": [
        {
          "indexed": false,
          "internalType": "contract ISherDistributionManager",
          "name": "previous",
          "type": "address"
        },
        {
          "indexed": false,
          "internalType": "contract ISherDistributionManager",
          "name": "current",
          "type": "address"
        }
      ],
      "name": "SherDistributionManagerUpdated",
      "type": "event"
    },
    {
      "anonymous": false,
      "inputs": [
        {
          "indexed": false,
          "internalType": "uint256",
          "name": "period",
          "type": "uint256"
        }
      ],
      "name": "StakingPeriodDisabled",
      "type": "event"
    },
    {
      "anonymous": false,
      "inputs": [
        {
          "indexed": false,
          "internalType": "uint256",
          "name": "period",
          "type": "uint256"
        }
      ],
      "name": "StakingPeriodEnabled",
      "type": "event"
    },
    {
      "anonymous": false,
      "inputs": [
        {
          "indexed": true,
          "internalType": "address",
          "name": "from",
          "type": "address"
        },
        {
          "indexed": true,
          "internalType": "address",
          "name": "to",
          "type": "address"
        },
        {
          "indexed": true,
          "internalType": "uint256",
          "name": "tokenId",
          "type": "uint256"
        }
      ],
      "name": "Transfer",
      "type": "event"
    },
    {
      "anonymous": false,
      "inputs": [
        {
          "indexed": false,
          "internalType": "address",
          "name": "account",
          "type": "address"
        }
      ],
      "name": "Unpaused",
      "type": "event"
    },
    {
      "anonymous": false,
      "inputs": [
        {
          "indexed": false,
          "internalType": "bytes",
          "name": "error",
          "type": "bytes"
        }
      ],
      "name": "YieldStrategyUpdateWithdrawAllError",
      "type": "event"
    },
    {
      "anonymous": false,
      "inputs": [
        {
          "indexed": false,
          "internalType": "contract IStrategyManager",
          "name": "previous",
          "type": "address"
        },
        {
          "indexed": false,
          "internalType": "contract IStrategyManager",
          "name": "current",
          "type": "address"
        }
      ],
      "name": "YieldStrategyUpdated",
      "type": "event"
    },
    {
      "inputs": [],
      "name": "ARB_RESTAKE_GROWTH_TIME",
      "outputs": [
        {
          "internalType": "uint256",
          "name": "",
          "type": "uint256"
        }
      ],
      "stateMutability": "view",
      "type": "function"
    },
    {
      "inputs": [],
      "name": "ARB_RESTAKE_MAX_PERCENTAGE",
      "outputs": [
        {
          "internalType": "uint256",
          "name": "",
          "type": "uint256"
        }
      ],
      "stateMutability": "view",
      "type": "function"
    },
    {
      "inputs": [],
      "name": "ARB_RESTAKE_PERIOD",
      "outputs": [
        {
          "internalType": "uint256",
          "name": "",
          "type": "uint256"
        }
      ],
      "stateMutability": "view",
      "type": "function"
    },
    {
      "inputs": [],
      "name": "ARB_RESTAKE_WAIT_TIME",
      "outputs": [
        {
          "internalType": "uint256",
          "name": "",
          "type": "uint256"
        }
      ],
      "stateMutability": "view",
      "type": "function"
    },
    {
      "inputs": [
        {
          "internalType": "address",
          "name": "to",
          "type": "address"
        },
        {
          "internalType": "uint256",
          "name": "tokenId",
          "type": "uint256"
        }
      ],
      "name": "approve",
      "outputs": [],
      "stateMutability": "nonpayable",
      "type": "function"
    },
    {
      "inputs": [
        {
          "internalType": "uint256",
          "name": "_id",
          "type": "uint256"
        }
      ],
      "name": "arbRestake",
      "outputs": [
        {
          "internalType": "uint256",
          "name": "_sher",
          "type": "uint256"
        },
        {
          "internalType": "uint256",
          "name": "_arbReward",
          "type": "uint256"
        }
      ],
      "stateMutability": "nonpayable",
      "type": "function"
    },
    {
      "inputs": [
        {
          "internalType": "address",
          "name": "owner",
          "type": "address"
        }
      ],
      "name": "balanceOf",
      "outputs": [
        {
          "internalType": "uint256",
          "name": "",
          "type": "uint256"
        }
      ],
      "stateMutability": "view",
      "type": "function"
    },
    {
      "inputs": [
        {
          "internalType": "uint256",
          "name": "_period",
          "type": "uint256"
        }
      ],
      "name": "disableStakingPeriod",
      "outputs": [],
      "stateMutability": "nonpayable",
      "type": "function"
    },
    {
      "inputs": [
        {
          "internalType": "uint256",
          "name": "_period",
          "type": "uint256"
        }
      ],
      "name": "enableStakingPeriod",
      "outputs": [],
      "stateMutability": "nonpayable",
      "type": "function"
    },
    {
      "inputs": [
        {
          "internalType": "uint256",
          "name": "tokenId",
          "type": "uint256"
        }
      ],
      "name": "getApproved",
      "outputs": [
        {
          "internalType": "address",
          "name": "",
          "type": "address"
        }
      ],
      "stateMutability": "view",
      "type": "function"
    },
    {
      "inputs": [
        {
          "internalType": "uint256",
          "name": "_amount",
          "type": "uint256"
        },
        {
          "internalType": "uint256",
          "name": "_period",
          "type": "uint256"
        },
        {
          "internalType": "address",
          "name": "_receiver",
          "type": "address"
        }
      ],
      "name": "initialStake",
      "outputs": [
        {
          "internalType": "uint256",
          "name": "_id",
          "type": "uint256"
        },
        {
          "internalType": "uint256",
          "name": "_sher",
          "type": "uint256"
        }
      ],
      "stateMutability": "nonpayable",
      "type": "function"
    },
    {
      "inputs": [
        {
          "internalType": "address",
          "name": "owner",
          "type": "address"
        },
        {
          "internalType": "address",
          "name": "operator",
          "type": "address"
        }
      ],
      "name": "isApprovedForAll",
      "outputs": [
        {
          "internalType": "bool",
          "name": "",
          "type": "bool"
        }
      ],
      "stateMutability": "view",
      "type": "function"
    },
    {
      "inputs": [
        {
          "internalType": "uint256",
          "name": "_tokenID",
          "type": "uint256"
        }
      ],
      "name": "lockupEnd",
      "outputs": [
        {
          "internalType": "uint256",
          "name": "",
          "type": "uint256"
        }
      ],
      "stateMutability": "view",
      "type": "function"
    },
    {
      "inputs": [],
      "name": "name",
      "outputs": [
        {
          "internalType": "string",
          "name": "",
          "type": "string"
        }
      ],
      "stateMutability": "view",
      "type": "function"
    },
    {
      "inputs": [],
      "name": "nonStakersAddress",
      "outputs": [
        {
          "internalType": "address",
          "name": "",
          "type": "address"
        }
      ],
      "stateMutability": "view",
      "type": "function"
    },
    {
      "inputs": [],
      "name": "owner",
      "outputs": [
        {
          "internalType": "address",
          "name": "",
          "type": "address"
        }
      ],
      "stateMutability": "view",
      "type": "function"
    },
    {
      "inputs": [
        {
          "internalType": "uint256",
          "name": "tokenId",
          "type": "uint256"
        }
      ],
      "name": "ownerOf",
      "outputs": [
        {
          "internalType": "address",
          "name": "",
          "type": "address"
        }
      ],
      "stateMutability": "view",
      "type": "function"
    },
    {
      "inputs": [
        {
          "internalType": "uint256",
          "name": "_id",
          "type": "uint256"
        },
        {
          "internalType": "uint256",
          "name": "_period",
          "type": "uint256"
        }
      ],
      "name": "ownerRestake",
      "outputs": [
        {
          "internalType": "uint256",
          "name": "_sher",
          "type": "uint256"
        }
      ],
      "stateMutability": "nonpayable",
      "type": "function"
    },
    {
      "inputs": [],
      "name": "pause",
      "outputs": [],
      "stateMutability": "nonpayable",
      "type": "function"
    },
    {
      "inputs": [],
      "name": "paused",
      "outputs": [
        {
          "internalType": "bool",
          "name": "",
          "type": "bool"
        }
      ],
      "stateMutability": "view",
      "type": "function"
    },
    {
      "inputs": [
        {
          "internalType": "address",
          "name": "_receiver",
          "type": "address"
        },
        {
          "internalType": "uint256",
          "name": "_amount",
          "type": "uint256"
        }
      ],
      "name": "payoutClaim",
      "outputs": [],
      "stateMutability": "nonpayable",
      "type": "function"
    },
    {
      "inputs": [
        {
          "internalType": "uint256",
          "name": "_id",
          "type": "uint256"
        }
      ],
      "name": "redeemNFT",
      "outputs": [
        {
          "internalType": "uint256",
          "name": "_amount",
          "type": "uint256"
        }
      ],
      "stateMutability": "nonpayable",
      "type": "function"
    },
    {
      "inputs": [],
      "name": "removeSherDistributionManager",
      "outputs": [],
      "stateMutability": "nonpayable",
      "type": "function"
    },
    {
      "inputs": [],
      "name": "renounceOwnership",
      "outputs": [],
      "stateMutability": "nonpayable",
      "type": "function"
    },
    {
      "inputs": [
        {
          "internalType": "address",
          "name": "from",
          "type": "address"
        },
        {
          "internalType": "address",
          "name": "to",
          "type": "address"
        },
        {
          "internalType": "uint256",
          "name": "tokenId",
          "type": "uint256"
        }
      ],
      "name": "safeTransferFrom",
      "outputs": [],
      "stateMutability": "nonpayable",
      "type": "function"
    },
    {
      "inputs": [
        {
          "internalType": "address",
          "name": "from",
          "type": "address"
        },
        {
          "internalType": "address",
          "name": "to",
          "type": "address"
        },
        {
          "internalType": "uint256",
          "name": "tokenId",
          "type": "uint256"
        },
        {
          "internalType": "bytes",
          "name": "_data",
          "type": "bytes"
        }
      ],
      "name": "safeTransferFrom",
      "outputs": [],
      "stateMutability": "nonpayable",
      "type": "function"
    },
    {
      "inputs": [
        {
          "internalType": "address",
          "name": "operator",
          "type": "address"
        },
        {
          "internalType": "bool",
          "name": "approved",
          "type": "bool"
        }
      ],
      "name": "setApprovalForAll",
      "outputs": [],
      "stateMutability": "nonpayable",
      "type": "function"
    },
    {
      "inputs": [],
      "name": "sher",
      "outputs": [
        {
          "internalType": "contract IERC20",
          "name": "",
          "type": "address"
        }
      ],
      "stateMutability": "view",
      "type": "function"
    },
    {
      "inputs": [],
      "name": "sherDistributionManager",
      "outputs": [
        {
          "internalType": "contract ISherDistributionManager",
          "name": "",
          "type": "address"
        }
      ],
      "stateMutability": "view",
      "type": "function"
    },
    {
      "inputs": [
        {
          "internalType": "uint256",
          "name": "_tokenID",
          "type": "uint256"
        }
      ],
      "name": "sherRewards",
      "outputs": [
        {
          "internalType": "uint256",
          "name": "",
          "type": "uint256"
        }
      ],
      "stateMutability": "view",
      "type": "function"
    },
    {
      "inputs": [],
      "name": "sherlockClaimManager",
      "outputs": [
        {
          "internalType": "contract ISherlockClaimManager",
          "name": "",
          "type": "address"
        }
      ],
      "stateMutability": "view",
      "type": "function"
    },
    {
      "inputs": [],
      "name": "sherlockProtocolManager",
      "outputs": [
        {
          "internalType": "contract ISherlockProtocolManager",
          "name": "",
          "type": "address"
        }
      ],
      "stateMutability": "view",
      "type": "function"
    },
    {
      "inputs": [
        {
          "internalType": "uint256",
          "name": "",
          "type": "uint256"
        }
      ],
      "name": "stakingPeriods",
      "outputs": [
        {
          "internalType": "bool",
          "name": "",
          "type": "bool"
        }
      ],
      "stateMutability": "view",
      "type": "function"
    },
    {
      "inputs": [
        {
          "internalType": "bytes4",
          "name": "interfaceId",
          "type": "bytes4"
        }
      ],
      "name": "supportsInterface",
      "outputs": [
        {
          "internalType": "bool",
          "name": "",
          "type": "bool"
        }
      ],
      "stateMutability": "view",
      "type": "function"
    },
    {
      "inputs": [],
      "name": "symbol",
      "outputs": [
        {
          "internalType": "string",
          "name": "",
          "type": "string"
        }
      ],
      "stateMutability": "view",
      "type": "function"
    },
    {
      "inputs": [],
      "name": "token",
      "outputs": [
        {
          "internalType": "contract IERC20",
          "name": "",
          "type": "address"
        }
      ],
      "stateMutability": "view",
      "type": "function"
    },
    {
      "inputs": [
        {
          "internalType": "uint256",
          "name": "_tokenID",
          "type": "uint256"
        }
      ],
      "name": "tokenBalanceOf",
      "outputs": [
        {
          "internalType": "uint256",
          "name": "",
          "type": "uint256"
        }
      ],
      "stateMutability": "view",
      "type": "function"
    },
    {
      "inputs": [
        {
          "internalType": "address",
          "name": "_staker",
          "type": "address"
        }
      ],
      "name": "tokenBalanceOfAddress",
      "outputs": [
        {
          "internalType": "uint256",
          "name": "",
          "type": "uint256"
        }
      ],
      "stateMutability": "view",
      "type": "function"
    },
    {
      "inputs": [
        {
          "internalType": "uint256",
          "name": "tokenId",
          "type": "uint256"
        }
      ],
      "name": "tokenURI",
      "outputs": [
        {
          "internalType": "string",
          "name": "",
          "type": "string"
        }
      ],
      "stateMutability": "view",
      "type": "function"
    },
    {
      "inputs": [],
      "name": "totalTokenBalanceStakers",
      "outputs": [
        {
          "internalType": "uint256",
          "name": "",
          "type": "uint256"
        }
      ],
      "stateMutability": "view",
      "type": "function"
    },
    {
      "inputs": [
        {
          "internalType": "address",
          "name": "from",
          "type": "address"
        },
        {
          "internalType": "address",
          "name": "to",
          "type": "address"
        },
        {
          "internalType": "uint256",
          "name": "tokenId",
          "type": "uint256"
        }
      ],
      "name": "transferFrom",
      "outputs": [],
      "stateMutability": "nonpayable",
      "type": "function"
    },
    {
      "inputs": [
        {
          "internalType": "address",
          "name": "newOwner",
          "type": "address"
        }
      ],
      "name": "transferOwnership",
      "outputs": [],
      "stateMutability": "nonpayable",
      "type": "function"
    },
    {
      "inputs": [],
      "name": "unpause",
      "outputs": [],
      "stateMutability": "nonpayable",
      "type": "function"
    },
    {
      "inputs": [
        {
          "internalType": "address",
          "name": "_nonStakers",
          "type": "address"
        }
      ],
      "name": "updateNonStakersAddress",
      "outputs": [],
      "stateMutability": "nonpayable",
      "type": "function"
    },
    {
      "inputs": [
        {
          "internalType": "contract ISherDistributionManager",
          "name": "_sherDistributionManager",
          "type": "address"
        }
      ],
      "name": "updateSherDistributionManager",
      "outputs": [],
      "stateMutability": "nonpayable",
      "type": "function"
    },
    {
      "inputs": [
        {
          "internalType": "contract ISherlockClaimManager",
          "name": "_claimManager",
          "type": "address"
        }
      ],
      "name": "updateSherlockClaimManager",
      "outputs": [],
      "stateMutability": "nonpayable",
      "type": "function"
    },
    {
      "inputs": [
        {
          "internalType": "contract ISherlockProtocolManager",
          "name": "_protocolManager",
          "type": "address"
        }
      ],
      "name": "updateSherlockProtocolManager",
      "outputs": [],
      "stateMutability": "nonpayable",
      "type": "function"
    },
    {
      "inputs": [
        {
          "internalType": "contract IStrategyManager",
          "name": "_yieldStrategy",
          "type": "address"
        }
      ],
      "name": "updateYieldStrategy",
      "outputs": [],
      "stateMutability": "nonpayable",
      "type": "function"
    },
    {
      "inputs": [
        {
          "internalType": "uint256",
          "name": "_id",
          "type": "uint256"
        }
      ],
      "name": "viewRewardForArbRestake",
      "outputs": [
        {
          "internalType": "uint256",
          "name": "profit",
          "type": "uint256"
        },
        {
          "internalType": "bool",
          "name": "able",
          "type": "bool"
        }
      ],
      "stateMutability": "view",
      "type": "function"
    },
    {
      "inputs": [],
      "name": "yieldStrategy",
      "outputs": [
        {
          "internalType": "contract IStrategyManager",
          "name": "",
          "type": "address"
        }
      ],
      "stateMutability": "view",
      "type": "function"
    },
    {
      "inputs": [
        {
          "internalType": "uint256",
          "name": "_amount",
          "type": "uint256"
        }
      ],
      "name": "yieldStrategyDeposit",
      "outputs": [],
      "stateMutability": "nonpayable",
      "type": "function"
    },
    {
      "inputs": [
        {
          "internalType": "uint256",
          "name": "_amount",
          "type": "uint256"
        }
      ],
      "name": "yieldStrategyWithdraw",
      "outputs": [],
      "stateMutability": "nonpayable",
      "type": "function"
    },
    {
      "inputs": [],
      "name": "yieldStrategyWithdrawAll",
      "outputs": [],
      "stateMutability": "nonpayable",
      "type": "function"
    }
  ],
  "bytecode": "0x60c06040523480156200001157600080fd5b50604051620056bc380380620056bc833981016040819052620000349162000733565b8751889088906200004d9060009060208501906200050a565b508051620000639060019060208401906200050a565b505050620000806200007a620003ae60201b60201c565b620003b2565b6006805460ff60a01b191690556001600160a01b038a16620000b55760405163b7852ebb60e01b815260040160405180910390fd5b6001600160a01b038916620000dd5760405163b7852ebb60e01b815260040160405180910390fd5b6001600160a01b038616620001055760405163b7852ebb60e01b815260040160405180910390fd5b6001600160a01b0385166200012d5760405163b7852ebb60e01b815260040160405180910390fd5b6001600160a01b038416620001555760405163b7852ebb60e01b815260040160405180910390fd5b6001600160a01b0383166200017d5760405163b7852ebb60e01b815260040160405180910390fd5b6001600160a01b038216620001a55760405163b7852ebb60e01b815260040160405180910390fd5b6001600160a01b038a811660805289811660a052600d80546001600160a01b031990811689841617909155600e80548216888416179055601180548216878416179055600f805482168684161790556010805490911691841691909117905560005b815181101562000253576200023e8282815181106200022a576200022a6200084a565b60200260200101516200040460201b60201c565b806200024a8162000860565b91505062000207565b5060408051600081526001600160a01b03881660208201527fbffd2f20a06ca0304329080309bdd314339b2a5afe9927f8b3100220b661c947910160405180910390a160408051600081526001600160a01b03871660208201527f24062d083f038a9c1aeff4eaa632dd2d026ce766bb41fa307198b6ab6cd003f7910160405180910390a160408051600081526001600160a01b03861660208201527f858040f45f3b8fa15a490ee8748c18344557eee85411d16032375a72ede42131910160405180910390a160408051600081526001600160a01b03851660208201527f73f2888686ab9a383b3e15e1af51c0bf844f02338c8d0b4b4e3f266a99c1e6ac910160405180910390a160408051600081526001600160a01b03841660208201527f4fb8c694740ad02d97e96c5bdd165d6e51d1a11e569be600ac432012b41ccf75910160405180910390a150505050505050505050620008c7565b3390565b600680546001600160a01b038381166001600160a01b0319831681179093556040519116919082907f8be0079c531659141344cd1fd0a4f28419497f9722a3daafe3b4186f6b6457e090600090a35050565b6006546001600160a01b03163314620004635760405162461bcd60e51b815260206004820181905260248201527f4f776e61626c653a2063616c6c6572206973206e6f7420746865206f776e6572604482015260640160405180910390fd5b80620004825760405163b7852ebb60e01b815260040160405180910390fd5b60008181526007602052604090205460ff1615620004b35760405163a9cb9e0d60e01b815260040160405180910390fd5b60008181526007602052604090819020805460ff19166001179055517f3cc8bc2ec3ed67adce54f8d51791fff47b8bd6b911e75d2d5fefbde81e971d5c90620004ff9083815260200190565b60405180910390a150565b82805462000518906200088a565b90600052602060002090601f0160209004810192826200053c576000855562000587565b82601f106200055757805160ff191683800117855562000587565b8280016001018555821562000587579182015b82811115620005875782518255916020019190600101906200056a565b506200059592915062000599565b5090565b5b808211156200059557600081556001016200059a565b80516001600160a01b0381168114620005c857600080fd5b919050565b634e487b7160e01b600052604160045260246000fd5b604051601f8201601f191681016001600160401b03811182821017156200060e576200060e620005cd565b604052919050565b600082601f8301126200062857600080fd5b81516001600160401b03811115620006445762000644620005cd565b60206200065a601f8301601f19168201620005e3565b82815285828487010111156200066f57600080fd5b60005b838110156200068f57858101830151828201840152820162000672565b83811115620006a15760008385840101525b5095945050505050565b600082601f830112620006bd57600080fd5b815160206001600160401b03821115620006db57620006db620005cd565b8160051b620006ec828201620005e3565b92835284810182019282810190878511156200070757600080fd5b83870192505b8483101562000728578251825291830191908301906200070d565b979650505050505050565b6000806000806000806000806000806101408b8d0312156200075457600080fd5b6200075f8b620005b0565b99506200076f60208c01620005b0565b60408c01519099506001600160401b03808211156200078d57600080fd5b6200079b8e838f0162000616565b995060608d0151915080821115620007b257600080fd5b620007c08e838f0162000616565b9850620007d060808e01620005b0565b9750620007e060a08e01620005b0565b9650620007f060c08e01620005b0565b95506200080060e08e01620005b0565b9450620008116101008e01620005b0565b93506101208d01519150808211156200082957600080fd5b50620008388d828e01620006ab565b9150509295989b9194979a5092959850565b634e487b7160e01b600052603260045260246000fd5b60006000198214156200088357634e487b7160e01b600052601160045260246000fd5b5060010190565b600181811c908216806200089f57607f821691505b60208210811415620008c157634e487b7160e01b600052602260045260246000fd5b50919050565b60805160a051614d9762000925600039600081816106190152818161371b0152818161386c0152613b7e01526000818161079501528181610e2e015281816111e6015281816127b101528181613c500152613d470152614d976000f3fe608060405234801561001057600080fd5b50600436106103575760003560e01c8063715018a6116101c8578063a22cb46511610104578063bfbb8a8d116100a2578063e68b77571161007c578063e68b77571461072e578063e985e9c514610741578063f2fde38b1461077d578063fc0c546a1461079057600080fd5b8063bfbb8a8d14610702578063c87b56dd1461070c578063e4b89ee91461071f57600080fd5b8063ac96058f116100de578063ac96058f146106b6578063b88d4fde146106c9578063bb3f3724146106dc578063bf362cb9146106ef57600080fd5b8063a22cb46514610686578063aaf5ced614610699578063abb81298146106a357600080fd5b80639047acef1161017157806395d89b411161014b57806395d89b411461064557806396a7392d1461064d578063975a8b021461066057806398ec930f1461067357600080fd5b80639047acef14610601578063937840b014610614578063939dcc7e1461063b57600080fd5b8063863a43d5116101a2578063863a43d5146105ba5780638af92c93146105cd5780638da5cb5b146105f057600080fd5b8063715018a6146105a257806375692116146105aa5780638456cb59146105b257600080fd5b806330179ceb116102975780635c975abb116102405780636352211e1161021a5780636352211e146105565780636422c629146105695780636733643f1461057c57806370a082311461058f57600080fd5b80635c975abb1461050d5780635ea09ae714610530578063624090111461054357600080fd5b806354972fc31161027157806354972fc3146104d457806356e24d37146104e757806358dc2cdb146104fa57600080fd5b806330179ceb146104b15780633f4ba83a146104b957806342842e0e146104c157600080fd5b806310099abf116103045780631878fbf3116102de5780631878fbf31461045b5780631a9b9c771461046357806323b872dd146104765780632f5cf62b1461048957600080fd5b806310099abf1461042257806313f14fee1461043557806313f4dd251461044857600080fd5b8063081812fc11610335578063081812fc146103c1578063095ea7b3146103ec5780630f2ecba41461040157600080fd5b806301ffc9a71461035c57806306fdde03146103845780630744197914610399575b600080fd5b61036f61036a36600461477e565b6107b7565b60405190151581526020015b60405180910390f35b61038c61089c565b60405161037b9190614811565b6103ac6103a7366004614824565b61092e565b6040805192835290151560208301520161037b565b6103d46103cf366004614824565b61094f565b6040516001600160a01b03909116815260200161037b565b6103ff6103fa366004614852565b6109fa565b005b61041461040f36600461487e565b610b2c565b60405190815260200161037b565b61041461043036600461489b565b610bbc565b600d546103d4906001600160a01b031681565b610414610456366004614824565b610c86565b610414610d02565b6103ff610471366004614824565b610eba565b6103ff6104843660046148bd565b611008565b61049c6104973660046148fe565b61108f565b6040805192835260208301919091520161037b565b6103ff611297565b6103ff61136d565b6103ff6104cf3660046148bd565b61177a565b6103ff6104e236600461487e565b611795565b6103ff6104f536600461487e565b6118f8565b610414610508366004614824565b611a5b565b60065474010000000000000000000000000000000000000000900460ff1661036f565b6103ff61053e36600461487e565b611b17565b6103ff610551366004614852565b611c7a565b6103d4610564366004614824565b611d7f565b610414610577366004614824565b611e0a565b6103ff61058a366004614824565b611e6b565b61041461059d36600461487e565b611f76565b6103ff612010565b6103ff612074565b6103ff612180565b600f546103d4906001600160a01b031681565b61036f6105db366004614824565b60076020526000908152604090205460ff1681565b6006546001600160a01b03166103d4565b61049c61060f366004614824565b612571565b6103d47f000000000000000000000000000000000000000000000000000000000000000081565b610414626ebe0081565b61038c612699565b6011546103d4906001600160a01b031681565b6010546103d4906001600160a01b031681565b6103ff610681366004614824565b6126a8565b6103ff610694366004614945565b61282b565b61041462093a8081565b600e546103d4906001600160a01b031681565b6103ff6106c4366004614824565b61290e565b6103ff6106d73660046149ad565b612a16565b6103ff6106ea36600461487e565b612a9e565b6104146106fd366004614824565b612c01565b6104146212750081565b61038c61071a366004614824565b612c62565b6104146702c68af0bb14000081565b6103ff61073c36600461487e565b612d57565b61036f61074f366004614aab565b6001600160a01b03918216600090815260056020908152604080832093909416825291909152205460ff1690565b6103ff61078b36600461487e565b612fbc565b6103d47f000000000000000000000000000000000000000000000000000000000000000081565b60007fffffffff0000000000000000000000000000000000000000000000000000000082167f80ac58cd00000000000000000000000000000000000000000000000000000000148061084a57507fffffffff0000000000000000000000000000000000000000000000000000000082167f5b5e139f00000000000000000000000000000000000000000000000000000000145b8061089657507f01ffc9a7000000000000000000000000000000000000000000000000000000007fffffffff000000000000000000000000000000000000000000000000000000008316145b92915050565b6060600080546108ab90614ad9565b80601f01602080910402602001604051908101604052809291908181526020018280546108d790614ad9565b80156109245780601f106108f957610100808354040283529160200191610924565b820191906000526020600020905b81548152906001019060200180831161090757829003601f168201915b5050505050905090565b60008061093a8361309b565b90925090506109488261315f565b9150915091565b6000818152600260205260408120546001600160a01b03166109de5760405162461bcd60e51b815260206004820152602c60248201527f4552433732313a20617070726f76656420717565727920666f72206e6f6e657860448201527f697374656e7420746f6b656e000000000000000000000000000000000000000060648201526084015b60405180910390fd5b506000908152600460205260409020546001600160a01b031690565b6000610a0582611d7f565b9050806001600160a01b0316836001600160a01b03161415610a8f5760405162461bcd60e51b815260206004820152602160248201527f4552433732313a20617070726f76616c20746f2063757272656e74206f776e6560448201527f720000000000000000000000000000000000000000000000000000000000000060648201526084016109d5565b336001600160a01b0382161480610aab5750610aab813361074f565b610b1d5760405162461bcd60e51b815260206004820152603860248201527f4552433732313a20617070726f76652063616c6c6572206973206e6f74206f7760448201527f6e6572206e6f7220617070726f76656420666f7220616c6c000000000000000060648201526084016109d5565b610b278383613176565b505050565b60006001600160a01b038216610b6e576040517fb7852ebb00000000000000000000000000000000000000000000000000000000815260040160405180910390fd5b600c5480610b7f5750600092915050565b80610b88610d02565b6001600160a01b0385166000908152600b6020526040902054610bab9190614b5c565b610bb59190614bc8565b9392505050565b60065460009074010000000000000000000000000000000000000000900460ff1615610c2a5760405162461bcd60e51b815260206004820152601060248201527f5061757361626c653a207061757365640000000000000000000000000000000060448201526064016109d5565b610c33836131fc565b60008281526007602052604090205460ff16610c7b576040517fa9cb9e0d00000000000000000000000000000000000000000000000000000000815260040160405180910390fd5b610bb583833361328e565b6000818152600260205260408120546001600160a01b0316610cd4576040517f2f9d01c500000000000000000000000000000000000000000000000000000000815260040160405180910390fd5b600c54610cdf610d02565b6000848152600a6020526040902054610cf89190614b5c565b6108969190614bc8565b600f54604080517f9703879c00000000000000000000000000000000000000000000000000000000815290516000926001600160a01b031691639703879c9160048083019260209291908290030181865afa158015610d65573d6000803e3d6000fd5b505050506040513d601f19601f82011682018060405250810190610d899190614bdc565b600d60009054906101000a90046001600160a01b03166001600160a01b031663722713f76040518163ffffffff1660e01b8152600401602060405180830381865afa158015610ddc573d6000803e3d6000fd5b505050506040513d601f19601f82011682018060405250810190610e009190614bdc565b6040517f70a082310000000000000000000000000000000000000000000000000000000081523060048201527f00000000000000000000000000000000000000000000000000000000000000006001600160a01b0316906370a0823190602401602060405180830381865afa158015610e7d573d6000803e3d6000fd5b505050506040513d601f19601f82011682018060405250810190610ea19190614bdc565b610eab9190614bf5565b610eb59190614bf5565b905090565b6006546001600160a01b03163314610f145760405162461bcd60e51b815260206004820181905260248201527f4f776e61626c653a2063616c6c6572206973206e6f7420746865206f776e657260448201526064016109d5565b80610f4b576040517fb7852ebb00000000000000000000000000000000000000000000000000000000815260040160405180910390fd5b60008181526007602052604090205460ff1615610f94576040517fa9cb9e0d00000000000000000000000000000000000000000000000000000000815260040160405180910390fd5b6000818152600760205260409081902080547fffffffffffffffffffffffffffffffffffffffffffffffffffffffffffffff00166001179055517f3cc8bc2ec3ed67adce54f8d51791fff47b8bd6b911e75d2d5fefbde81e971d5c90610ffd9083815260200190565b60405180910390a150565b61101233826132e3565b6110845760405162461bcd60e51b815260206004820152603160248201527f4552433732313a207472616e736665722063616c6c6572206973206e6f74206f60448201527f776e6572206e6f7220617070726f76656400000000000000000000000000000060648201526084016109d5565b610b278383836133eb565b6000806110b760065460ff740100000000000000000000000000000000000000009091041690565b156111045760405162461bcd60e51b815260206004820152601060248201527f5061757361626c653a207061757365640000000000000000000000000000000060448201526064016109d5565b8461113b576040517fb7852ebb00000000000000000000000000000000000000000000000000000000815260040160405180910390fd5b60008481526007602052604090205460ff16611183576040517fa9cb9e0d00000000000000000000000000000000000000000000000000000000815260040160405180910390fd5b6001600160a01b0383166111c3576040517fb7852ebb00000000000000000000000000000000000000000000000000000000815260040160405180910390fd5b6012600081546111d290614c0d565b9182905550915061120e6001600160a01b037f0000000000000000000000000000000000000000000000000000000000000000163330886135db565b600c5460009080156112485786611223610d02565b61122d9190614c46565b6112378289614b5c565b6112419190614bc8565b915061124c565b8691505b6000848152600a60205260408120839055600c805484929061126f908490614bf5565b909155506112819050878786886136aa565b925061128d8585613948565b5050935093915050565b6006546001600160a01b031633146112f15760405162461bcd60e51b815260206004820181905260248201527f4f776e61626c653a2063616c6c6572206973206e6f7420746865206f776e657260448201526064016109d5565b600d60009054906101000a90046001600160a01b03166001600160a01b031663853828b66040518163ffffffff1660e01b81526004016020604051808303816000875af1158015611346573d6000803e3d6000fd5b505050506040513d601f19601f8201168201806040525081019061136a9190614bdc565b50565b6006546001600160a01b031633146113c75760405162461bcd60e51b815260206004820181905260248201527f4f776e61626c653a2063616c6c6572206973206e6f7420746865206f776e657260448201526064016109d5565b6113cf613966565b600d60009054906101000a90046001600160a01b03166001600160a01b0316635c975abb6040518163ffffffff1660e01b8152600401602060405180830381865afa158015611422573d6000803e3d6000fd5b505050506040513d601f19601f820116820180604052508101906114469190614c5d565b156114b457600d60009054906101000a90046001600160a01b03166001600160a01b0316633f4ba83a6040518163ffffffff1660e01b8152600401600060405180830381600087803b15801561149b57600080fd5b505af11580156114af573d6000803e3d6000fd5b505050505b600e546001600160a01b0316158015906115405750600e60009054906101000a90046001600160a01b03166001600160a01b0316635c975abb6040518163ffffffff1660e01b8152600401602060405180830381865afa15801561151c573d6000803e3d6000fd5b505050506040513d601f19601f820116820180604052508101906115409190614c5d565b156115ae57600e60009054906101000a90046001600160a01b03166001600160a01b0316633f4ba83a6040518163ffffffff1660e01b8152600401600060405180830381600087803b15801561159557600080fd5b505af11580156115a9573d6000803e3d6000fd5b505050505b600f60009054906101000a90046001600160a01b03166001600160a01b0316635c975abb6040518163ffffffff1660e01b8152600401602060405180830381865afa158015611601573d6000803e3d6000fd5b505050506040513d601f19601f820116820180604052508101906116259190614c5d565b1561169357600f60009054906101000a90046001600160a01b03166001600160a01b0316633f4ba83a6040518163ffffffff1660e01b8152600401600060405180830381600087803b15801561167a57600080fd5b505af115801561168e573d6000803e3d6000fd5b505050505b601060009054906101000a90046001600160a01b03166001600160a01b0316635c975abb6040518163ffffffff1660e01b8152600401602060405180830381865afa1580156116e6573d6000803e3d6000fd5b505050506040513d601f19601f8201168201806040525081019061170a9190614c5d565b1561177857601060009054906101000a90046001600160a01b03166001600160a01b0316633f4ba83a6040518163ffffffff1660e01b8152600401600060405180830381600087803b15801561175f57600080fd5b505af1158015611773573d6000803e3d6000fd5b505050505b565b610b2783838360405180602001604052806000815250612a16565b6006546001600160a01b031633146117ef5760405162461bcd60e51b815260206004820181905260248201527f4f776e61626c653a2063616c6c6572206973206e6f7420746865206f776e657260448201526064016109d5565b6001600160a01b03811661182f576040517fb7852ebb00000000000000000000000000000000000000000000000000000000815260040160405180910390fd5b6011546001600160a01b0382811691161415611877576040517fa9cb9e0d00000000000000000000000000000000000000000000000000000000815260040160405180910390fd5b601154604080516001600160a01b03928316815291831660208301527f858040f45f3b8fa15a490ee8748c18344557eee85411d16032375a72ede42131910160405180910390a1601180547fffffffffffffffffffffffff0000000000000000000000000000000000000000166001600160a01b0392909216919091179055565b6006546001600160a01b031633146119525760405162461bcd60e51b815260206004820181905260248201527f4f776e61626c653a2063616c6c6572206973206e6f7420746865206f776e657260448201526064016109d5565b6001600160a01b038116611992576040517fb7852ebb00000000000000000000000000000000000000000000000000000000815260040160405180910390fd5b600e546001600160a01b03828116911614156119da576040517fa9cb9e0d00000000000000000000000000000000000000000000000000000000815260040160405180910390fd5b600e54604080516001600160a01b03928316815291831660208301527f24062d083f038a9c1aeff4eaa632dd2d026ce766bb41fa307198b6ab6cd003f7910160405180910390a1600e80547fffffffffffffffffffffffff0000000000000000000000000000000000000000166001600160a01b0392909216919091179055565b60065460009074010000000000000000000000000000000000000000900460ff1615611ac95760405162461bcd60e51b815260206004820152601060248201527f5061757361626c653a207061757365640000000000000000000000000000000060448201526064016109d5565b611ad2826131fc565b611adb82613a38565b6000828152600a6020526040902054611af690839033613af7565b9050611b028233613b58565b60009182526008602052604082209190915590565b6006546001600160a01b03163314611b715760405162461bcd60e51b815260206004820181905260248201527f4f776e61626c653a2063616c6c6572206973206e6f7420746865206f776e657260448201526064016109d5565b6001600160a01b038116611bb1576040517fb7852ebb00000000000000000000000000000000000000000000000000000000815260040160405180910390fd5b600f546001600160a01b0382811691161415611bf9576040517fa9cb9e0d00000000000000000000000000000000000000000000000000000000815260040160405180910390fd5b600f54604080516001600160a01b03928316815291831660208301527f73f2888686ab9a383b3e15e1af51c0bf844f02338c8d0b4b4e3f266a99c1e6ac910160405180910390a1600f80547fffffffffffffffffffffffff0000000000000000000000000000000000000000166001600160a01b0392909216919091179055565b60065474010000000000000000000000000000000000000000900460ff1615611ce55760405162461bcd60e51b815260206004820152601060248201527f5061757361626c653a207061757365640000000000000000000000000000000060448201526064016109d5565b6010546001600160a01b03163314611d29576040517f82b4290000000000000000000000000000000000000000000000000000000000815260040160405180910390fd5b8015611d3957611d398282613bb8565b604080516001600160a01b0384168152602081018390527f86d1859fdb12afcb2875bb01d9996ad35d9dd55f62a87e76d9853161111b19ce910160405180910390a15050565b6000818152600260205260408120546001600160a01b0316806108965760405162461bcd60e51b815260206004820152602960248201527f4552433732313a206f776e657220717565727920666f72206e6f6e657869737460448201527f656e7420746f6b656e000000000000000000000000000000000000000000000060648201526084016109d5565b6000818152600260205260408120546001600160a01b0316611e58576040517f2f9d01c500000000000000000000000000000000000000000000000000000000815260040160405180910390fd5b5060009081526009602052604090205490565b6006546001600160a01b03163314611ec55760405162461bcd60e51b815260206004820181905260248201527f4f776e61626c653a2063616c6c6572206973206e6f7420746865206f776e657260448201526064016109d5565b80611efc576040517fb7852ebb00000000000000000000000000000000000000000000000000000000815260040160405180910390fd5b600d546040517f2e1a7d4d000000000000000000000000000000000000000000000000000000008152600481018390526001600160a01b0390911690632e1a7d4d90602401600060405180830381600087803b158015611f5b57600080fd5b505af1158015611f6f573d6000803e3d6000fd5b5050505050565b60006001600160a01b038216611ff45760405162461bcd60e51b815260206004820152602a60248201527f4552433732313a2062616c616e636520717565727920666f7220746865207a6560448201527f726f20616464726573730000000000000000000000000000000000000000000060648201526084016109d5565b506001600160a01b031660009081526003602052604090205490565b6006546001600160a01b0316331461206a5760405162461bcd60e51b815260206004820181905260248201527f4f776e61626c653a2063616c6c6572206973206e6f7420746865206f776e657260448201526064016109d5565b6117786000613d6e565b6006546001600160a01b031633146120ce5760405162461bcd60e51b815260206004820181905260248201527f4f776e61626c653a2063616c6c6572206973206e6f7420746865206f776e657260448201526064016109d5565b600e546001600160a01b0316612110576040517f3af36e0a00000000000000000000000000000000000000000000000000000000815260040160405180910390fd5b600e54604080516001600160a01b039092168252600060208301527f24062d083f038a9c1aeff4eaa632dd2d026ce766bb41fa307198b6ab6cd003f7910160405180910390a1600e80547fffffffffffffffffffffffff0000000000000000000000000000000000000000169055565b6006546001600160a01b031633146121da5760405162461bcd60e51b815260206004820181905260248201527f4f776e61626c653a2063616c6c6572206973206e6f7420746865206f776e657260448201526064016109d5565b6121e2613dd8565b600d60009054906101000a90046001600160a01b03166001600160a01b0316635c975abb6040518163ffffffff1660e01b8152600401602060405180830381865afa158015612235573d6000803e3d6000fd5b505050506040513d601f19601f820116820180604052508101906122599190614c5d565b6122c657600d60009054906101000a90046001600160a01b03166001600160a01b0316638456cb596040518163ffffffff1660e01b8152600401600060405180830381600087803b1580156122ad57600080fd5b505af11580156122c1573d6000803e3d6000fd5b505050505b600e546001600160a01b0316158015906123545750600e60009054906101000a90046001600160a01b03166001600160a01b0316635c975abb6040518163ffffffff1660e01b8152600401602060405180830381865afa15801561232e573d6000803e3d6000fd5b505050506040513d601f19601f820116820180604052508101906123529190614c5d565b155b156123c257600e60009054906101000a90046001600160a01b03166001600160a01b0316638456cb596040518163ffffffff1660e01b8152600401600060405180830381600087803b1580156123a957600080fd5b505af11580156123bd573d6000803e3d6000fd5b505050505b600f60009054906101000a90046001600160a01b03166001600160a01b0316635c975abb6040518163ffffffff1660e01b8152600401602060405180830381865afa158015612415573d6000803e3d6000fd5b505050506040513d601f19601f820116820180604052508101906124399190614c5d565b6124a657600f60009054906101000a90046001600160a01b03166001600160a01b0316638456cb596040518163ffffffff1660e01b8152600401600060405180830381600087803b15801561248d57600080fd5b505af11580156124a1573d6000803e3d6000fd5b505050505b601060009054906101000a90046001600160a01b03166001600160a01b0316635c975abb6040518163ffffffff1660e01b8152600401602060405180830381865afa1580156124f9573d6000803e3d6000fd5b505050506040513d601f19601f8201168201806040525081019061251d9190614c5d565b61177857601060009054906101000a90046001600160a01b03166001600160a01b0316638456cb596040518163ffffffff1660e01b8152600401600060405180830381600087803b15801561175f57600080fd5b60008061259960065460ff740100000000000000000000000000000000000000009091041690565b156125e65760405162461bcd60e51b815260206004820152601060248201527f5061757361626c653a207061757365640000000000000000000000000000000060448201526064016109d5565b60006125f184611d7f565b90506000806125ff8661309b565b915091508061263a576040517f3af36e0a00000000000000000000000000000000000000000000000000000000815260040160405180910390fd5b612645868333613af7565b935061265586626ebe008561328e565b9450857f55cf5b0b0c4865ff48ccec25327df9c608efaf77250f54b9dbb4a3833100fb4d8560405161268991815260200190565b60405180910390a2505050915091565b6060600180546108ab90614ad9565b6006546001600160a01b031633146127025760405162461bcd60e51b815260206004820181905260248201527f4f776e61626c653a2063616c6c6572206973206e6f7420746865206f776e657260448201526064016109d5565b80612739576040517fb7852ebb00000000000000000000000000000000000000000000000000000000815260040160405180910390fd5b600f60009054906101000a90046001600160a01b03166001600160a01b031663ce104f086040518163ffffffff1660e01b8152600401600060405180830381600087803b15801561278957600080fd5b505af115801561279d573d6000803e3d6000fd5b5050600d546127db92506001600160a01b037f0000000000000000000000000000000000000000000000000000000000000000811692501683613eaa565b600d60009054906101000a90046001600160a01b03166001600160a01b031663d0e30db06040518163ffffffff1660e01b8152600401600060405180830381600087803b158015611f5b57600080fd5b6001600160a01b0382163314156128845760405162461bcd60e51b815260206004820152601960248201527f4552433732313a20617070726f766520746f2063616c6c65720000000000000060448201526064016109d5565b3360008181526005602090815260408083206001600160a01b0387168085529083529281902080547fffffffffffffffffffffffffffffffffffffffffffffffffffffffffffffff001686151590811790915590519081529192917f17307eab39ab6107e8899845ad3d59bd9653f200f220920489ca2b5937696c31910160405180910390a35050565b6006546001600160a01b031633146129685760405162461bcd60e51b815260206004820181905260248201527f4f776e61626c653a2063616c6c6572206973206e6f7420746865206f776e657260448201526064016109d5565b60008181526007602052604090205460ff166129b0576040517fa9cb9e0d00000000000000000000000000000000000000000000000000000000815260040160405180910390fd5b6000818152600760205260409081902080547fffffffffffffffffffffffffffffffffffffffffffffffffffffffffffffff00169055517fa12571933ed68ec934e0a44f7702f6a8c284f907672c05b6eb02a6a1541a83a290610ffd9083815260200190565b612a2033836132e3565b612a925760405162461bcd60e51b815260206004820152603160248201527f4552433732313a207472616e736665722063616c6c6572206973206e6f74206f60448201527f776e6572206e6f7220617070726f76656400000000000000000000000000000060648201526084016109d5565b61177384848484613ef3565b6006546001600160a01b03163314612af85760405162461bcd60e51b815260206004820181905260248201527f4f776e61626c653a2063616c6c6572206973206e6f7420746865206f776e657260448201526064016109d5565b6001600160a01b038116612b38576040517fb7852ebb00000000000000000000000000000000000000000000000000000000815260040160405180910390fd5b6010546001600160a01b0382811691161415612b80576040517fa9cb9e0d00000000000000000000000000000000000000000000000000000000815260040160405180910390fd5b601054604080516001600160a01b03928316815291831660208301527f4fb8c694740ad02d97e96c5bdd165d6e51d1a11e569be600ac432012b41ccf75910160405180910390a1601080547fffffffffffffffffffffffff0000000000000000000000000000000000000000166001600160a01b0392909216919091179055565b6000818152600260205260408120546001600160a01b0316612c4f576040517f2f9d01c500000000000000000000000000000000000000000000000000000000815260040160405180910390fd5b5060009081526008602052604090205490565b6000818152600260205260409020546060906001600160a01b0316612cef5760405162461bcd60e51b815260206004820152602f60248201527f4552433732314d657461646174613a2055524920717565727920666f72206e6f60448201527f6e6578697374656e7420746f6b656e000000000000000000000000000000000060648201526084016109d5565b6000612d0660408051602081019091526000815290565b90506000815111612d265760405180602001604052806000815250610bb5565b80612d3084613f7c565b604051602001612d41929190614c7a565b6040516020818303038152906040529392505050565b6006546001600160a01b03163314612db15760405162461bcd60e51b815260206004820181905260248201527f4f776e61626c653a2063616c6c6572206973206e6f7420746865206f776e657260448201526064016109d5565b6001600160a01b038116612df1576040517fb7852ebb00000000000000000000000000000000000000000000000000000000815260040160405180910390fd5b600d546001600160a01b0382811691161415612e39576040517fa9cb9e0d00000000000000000000000000000000000000000000000000000000815260040160405180910390fd5b600d60009054906101000a90046001600160a01b03166001600160a01b031663853828b66040518163ffffffff1660e01b81526004016020604051808303816000875af1925050508015612ec8575060408051601f3d9081017fffffffffffffffffffffffffffffffffffffffffffffffffffffffffffffffe0168201909252612ec591810190614bdc565b60015b612f39573d808015612ef6576040519150601f19603f3d011682016040523d82523d6000602084013e612efb565b606091505b507ffe257ff0b8b9234a845b6da819fdd8bb73b1d3baf5ec0bfca0afdf884aaef54381604051612f2b9190614811565b60405180910390a150612f3b565b505b600d54604080516001600160a01b03928316815291831660208301527fbffd2f20a06ca0304329080309bdd314339b2a5afe9927f8b3100220b661c947910160405180910390a1600d80547fffffffffffffffffffffffff0000000000000000000000000000000000000000166001600160a01b0392909216919091179055565b6006546001600160a01b031633146130165760405162461bcd60e51b815260206004820181905260248201527f4f776e61626c653a2063616c6c6572206973206e6f7420746865206f776e657260448201526064016109d5565b6001600160a01b0381166130925760405162461bcd60e51b815260206004820152602660248201527f4f776e61626c653a206e6577206f776e657220697320746865207a65726f206160448201527f646472657373000000000000000000000000000000000000000000000000000060648201526084016109d5565b61136a81613d6e565b600081815260086020526040812054819081906130bc906212750090614bf5565b9050428111156130d25750600093849350915050565b60006130e162093a8083614bf5565b905060008142106130f257816130f4565b425b6000878152600a602052604081205491925090613119906702c68af0bb140000614b5c565b9050670de0b6b3a764000062093a80826131338786614c46565b61313d9190614b5c565b6131479190614bc8565b6131519190614bc8565b976001975095505050505050565b6000600c5461316c610d02565b610cf89084614b5c565b600081815260046020526040902080547fffffffffffffffffffffffff0000000000000000000000000000000000000000166001600160a01b03841690811790915581906131c382611d7f565b6001600160a01b03167f8c5be1e5ebec7d5bd14f71427d1e84f3dd0314c0f7b2291e5b200ac8c7c3b92560405160405180910390a45050565b3361320682611d7f565b6001600160a01b031614613246576040517f82b4290000000000000000000000000000000000000000000000000000000000815260040160405180910390fd5b60008181526008602052604090205442101561136a576040517f3af36e0a00000000000000000000000000000000000000000000000000000000815260040160405180910390fd5b600061329a8483613b58565b6132ae6132a685610c86565b8486856136aa565b60405190915084907fd56ee5c2e47aa11e45be71e49c4d945f32b196e4d5689412bf45bb6ae6253d0190600090a29392505050565b6000818152600260205260408120546001600160a01b031661336d5760405162461bcd60e51b815260206004820152602c60248201527f4552433732313a206f70657261746f7220717565727920666f72206e6f6e657860448201527f697374656e7420746f6b656e000000000000000000000000000000000000000060648201526084016109d5565b600061337883611d7f565b9050806001600160a01b0316846001600160a01b031614806133b35750836001600160a01b03166133a88461094f565b6001600160a01b0316145b806133e357506001600160a01b0380821660009081526005602090815260408083209388168352929052205460ff165b949350505050565b826001600160a01b03166133fe82611d7f565b6001600160a01b03161461347a5760405162461bcd60e51b815260206004820152602960248201527f4552433732313a207472616e73666572206f6620746f6b656e2074686174206960448201527f73206e6f74206f776e000000000000000000000000000000000000000000000060648201526084016109d5565b6001600160a01b0382166134f55760405162461bcd60e51b8152602060048201526024808201527f4552433732313a207472616e7366657220746f20746865207a65726f2061646460448201527f726573730000000000000000000000000000000000000000000000000000000060648201526084016109d5565b6135008383836140ae565b61350b600082613176565b6001600160a01b0383166000908152600360205260408120805460019290613534908490614c46565b90915550506001600160a01b0382166000908152600360205260408120805460019290613562908490614bf5565b909155505060008181526002602052604080822080547fffffffffffffffffffffffff0000000000000000000000000000000000000000166001600160a01b0386811691821790925591518493918716917fddf252ad1be2c89b69c2b068fc378daa952ba7f163c4a11628f55a4df523b3ef91a4505050565b6040516001600160a01b03808516602483015283166044820152606481018290526117739085907f23b872dd00000000000000000000000000000000000000000000000000000000906084015b604080517fffffffffffffffffffffffffffffffffffffffffffffffffffffffffffffffe08184030181529190526020810180517bffffffffffffffffffffffffffffffffffffffffffffffffffffffff167fffffffff000000000000000000000000000000000000000000000000000000009093169290921790915261413c565b60006136b68442614bf5565b600084815260086020526040902055600e546001600160a01b03166136dd575060006133e3565b846136ea575060006133e3565b6040517f70a082310000000000000000000000000000000000000000000000000000000081523060048201526000907f00000000000000000000000000000000000000000000000000000000000000006001600160a01b0316906370a0823190602401602060405180830381865afa15801561376a573d6000803e3d6000fd5b505050506040513d601f19601f8201168201806040525081019061378e9190614bdc565b600e546040517fd353b94c0000000000000000000000000000000000000000000000000000000081526004810189905260248101889052604481018790526001600160a01b03868116606483015292935091169063d353b94c906084016020604051808303816000875af115801561380a573d6000803e3d6000fd5b505050506040513d601f19601f8201168201806040525081019061382e9190614bdc565b6040517f70a0823100000000000000000000000000000000000000000000000000000000815230600482015290925060009082906001600160a01b037f000000000000000000000000000000000000000000000000000000000000000016906370a0823190602401602060405180830381865afa1580156138b3573d6000803e3d6000fd5b505050506040513d601f19601f820116820180604052508101906138d79190614bdc565b6138e19190614c46565b9050828114613926576040517f0c61d1f600000000000000000000000000000000000000000000000000000000815260048101849052602481018290526044016109d5565b821561393e5760008581526009602052604090208390555b5050949350505050565b613962828260405180602001604052806000815250614221565b5050565b60065474010000000000000000000000000000000000000000900460ff166139d05760405162461bcd60e51b815260206004820152601460248201527f5061757361626c653a206e6f742070617573656400000000000000000000000060448201526064016109d5565b600680547fffffffffffffffffffffff00ffffffffffffffffffffffffffffffffffffffff1690557f5db9ee0a495bf2e6ff9c91a7834c1ba4fdd244a5e8aa4e537bd38aeae4b073aa335b6040516001600160a01b03909116815260200160405180910390a1565b6000613a4382611d7f565b9050613a51816000846140ae565b613a5c600083613176565b6001600160a01b0381166000908152600360205260408120805460019290613a85908490614c46565b909155505060008281526002602052604080822080547fffffffffffffffffffffffff0000000000000000000000000000000000000000169055518391906001600160a01b038416907fddf252ad1be2c89b69c2b068fc378daa952ba7f163c4a11628f55a4df523b3ef908390a45050565b6000613b028361315f565b90508015613b1457613b148282613bb8565b6000848152600a602052604081208054859290613b32908490614c46565b9250508190555082600c6000828254613b4b9190614c46565b9091555090949350505050565b60008281526009602052604090205480613b7157505050565b613ba56001600160a01b037f0000000000000000000000000000000000000000000000000000000000000000168383613eaa565b5050600090815260096020526040812055565b600f60009054906101000a90046001600160a01b03166001600160a01b031663ce104f086040518163ffffffff1660e01b8152600401600060405180830381600087803b158015613c0857600080fd5b505af1158015613c1c573d6000803e3d6000fd5b50506040517f70a08231000000000000000000000000000000000000000000000000000000008152306004820152600092507f00000000000000000000000000000000000000000000000000000000000000006001600160a01b031691506370a0823190602401602060405180830381865afa158015613ca0573d6000803e3d6000fd5b505050506040513d601f19601f82011682018060405250810190613cc49190614bdc565b905080821115613d3a57600d546001600160a01b0316632e1a7d4d613ce98385614c46565b6040518263ffffffff1660e01b8152600401613d0791815260200190565b600060405180830381600087803b158015613d2157600080fd5b505af1158015613d35573d6000803e3d6000fd5b505050505b610b276001600160a01b037f0000000000000000000000000000000000000000000000000000000000000000168484613eaa565b600680546001600160a01b038381167fffffffffffffffffffffffff0000000000000000000000000000000000000000831681179093556040519116919082907f8be0079c531659141344cd1fd0a4f28419497f9722a3daafe3b4186f6b6457e090600090a35050565b60065474010000000000000000000000000000000000000000900460ff1615613e435760405162461bcd60e51b815260206004820152601060248201527f5061757361626c653a207061757365640000000000000000000000000000000060448201526064016109d5565b600680547fffffffffffffffffffffff00ffffffffffffffffffffffffffffffffffffffff16740100000000000000000000000000000000000000001790557f62e78cea01bee320cd4e420270b5ea74000d11b0c9f74754ebdbfc544b05a258613a1b3390565b6040516001600160a01b038316602482015260448101829052610b279084907fa9059cbb0000000000000000000000000000000000000000000000000000000090606401613628565b613efe8484846133eb565b613f0a848484846142aa565b6117735760405162461bcd60e51b815260206004820152603260248201527f4552433732313a207472616e7366657220746f206e6f6e20455243373231526560448201527f63656976657220696d706c656d656e746572000000000000000000000000000060648201526084016109d5565b606081613fbc57505060408051808201909152600181527f3000000000000000000000000000000000000000000000000000000000000000602082015290565b8160005b8115613fe65780613fd081614c0d565b9150613fdf9050600a83614bc8565b9150613fc0565b60008167ffffffffffffffff8111156140015761400161497e565b6040519080825280601f01601f19166020018201604052801561402b576020820181803683370190505b5090505b84156133e357614040600183614c46565b915061404d600a86614ca9565b614058906030614bf5565b60f81b81838151811061406d5761406d614cbd565b60200101907effffffffffffffffffffffffffffffffffffffffffffffffffffffffffffff1916908160001a9053506140a7600a86614bc8565b945061402f565b6000818152600a60205260409020546001600160a01b038416156140fa576001600160a01b0384166000908152600b6020526040812080548392906140f4908490614c46565b90915550505b6001600160a01b03831615611773576001600160a01b0383166000908152600b602052604081208054839290614131908490614bf5565b909155505050505050565b6000614191826040518060400160405280602081526020017f5361666545524332303a206c6f772d6c6576656c2063616c6c206661696c6564815250856001600160a01b03166144639092919063ffffffff16565b805190915015610b2757808060200190518101906141af9190614c5d565b610b275760405162461bcd60e51b815260206004820152602a60248201527f5361666545524332303a204552433230206f7065726174696f6e20646964206e60448201527f6f7420737563636565640000000000000000000000000000000000000000000060648201526084016109d5565b61422b8383614472565b61423860008484846142aa565b610b275760405162461bcd60e51b815260206004820152603260248201527f4552433732313a207472616e7366657220746f206e6f6e20455243373231526560448201527f63656976657220696d706c656d656e746572000000000000000000000000000060648201526084016109d5565b60006001600160a01b0384163b1561445b576040517f150b7a020000000000000000000000000000000000000000000000000000000081526001600160a01b0385169063150b7a0290614307903390899088908890600401614cec565b6020604051808303816000875af1925050508015614360575060408051601f3d9081017fffffffffffffffffffffffffffffffffffffffffffffffffffffffffffffffe016820190925261435d91810190614d28565b60015b614410573d80801561438e576040519150601f19603f3d011682016040523d82523d6000602084013e614393565b606091505b5080516144085760405162461bcd60e51b815260206004820152603260248201527f4552433732313a207472616e7366657220746f206e6f6e20455243373231526560448201527f63656976657220696d706c656d656e746572000000000000000000000000000060648201526084016109d5565b805181602001fd5b7fffffffff00000000000000000000000000000000000000000000000000000000167f150b7a02000000000000000000000000000000000000000000000000000000001490506133e3565b5060016133e3565b60606133e384846000856145d8565b6001600160a01b0382166144c85760405162461bcd60e51b815260206004820181905260248201527f4552433732313a206d696e7420746f20746865207a65726f206164647265737360448201526064016109d5565b6000818152600260205260409020546001600160a01b03161561452d5760405162461bcd60e51b815260206004820152601c60248201527f4552433732313a20746f6b656e20616c7265616479206d696e7465640000000060448201526064016109d5565b614539600083836140ae565b6001600160a01b0382166000908152600360205260408120805460019290614562908490614bf5565b909155505060008181526002602052604080822080547fffffffffffffffffffffffff0000000000000000000000000000000000000000166001600160a01b03861690811790915590518392907fddf252ad1be2c89b69c2b068fc378daa952ba7f163c4a11628f55a4df523b3ef908290a45050565b6060824710156146505760405162461bcd60e51b815260206004820152602660248201527f416464726573733a20696e73756666696369656e742062616c616e636520666f60448201527f722063616c6c000000000000000000000000000000000000000000000000000060648201526084016109d5565b843b61469e5760405162461bcd60e51b815260206004820152601d60248201527f416464726573733a2063616c6c20746f206e6f6e2d636f6e747261637400000060448201526064016109d5565b600080866001600160a01b031685876040516146ba9190614d45565b60006040518083038185875af1925050503d80600081146146f7576040519150601f19603f3d011682016040523d82523d6000602084013e6146fc565b606091505b509150915061470c828286614717565b979650505050505050565b60608315614726575081610bb5565b8251156147365782518084602001fd5b8160405162461bcd60e51b81526004016109d59190614811565b7fffffffff000000000000000000000000000000000000000000000000000000008116811461136a57600080fd5b60006020828403121561479057600080fd5b8135610bb581614750565b60005b838110156147b657818101518382015260200161479e565b838111156117735750506000910152565b600081518084526147df81602086016020860161479b565b601f017fffffffffffffffffffffffffffffffffffffffffffffffffffffffffffffffe0169290920160200192915050565b602081526000610bb560208301846147c7565b60006020828403121561483657600080fd5b5035919050565b6001600160a01b038116811461136a57600080fd5b6000806040838503121561486557600080fd5b82356148708161483d565b946020939093013593505050565b60006020828403121561489057600080fd5b8135610bb58161483d565b600080604083850312156148ae57600080fd5b50508035926020909101359150565b6000806000606084860312156148d257600080fd5b83356148dd8161483d565b925060208401356148ed8161483d565b929592945050506040919091013590565b60008060006060848603121561491357600080fd5b8335925060208401359150604084013561492c8161483d565b809150509250925092565b801515811461136a57600080fd5b6000806040838503121561495857600080fd5b82356149638161483d565b9150602083013561497381614937565b809150509250929050565b7f4e487b7100000000000000000000000000000000000000000000000000000000600052604160045260246000fd5b600080600080608085870312156149c357600080fd5b84356149ce8161483d565b935060208501356149de8161483d565b925060408501359150606085013567ffffffffffffffff80821115614a0257600080fd5b818701915087601f830112614a1657600080fd5b813581811115614a2857614a2861497e565b604051601f82017fffffffffffffffffffffffffffffffffffffffffffffffffffffffffffffffe0908116603f01168101908382118183101715614a6e57614a6e61497e565b816040528281528a6020848701011115614a8757600080fd5b82602086016020830137600060208483010152809550505050505092959194509250565b60008060408385031215614abe57600080fd5b8235614ac98161483d565b915060208301356149738161483d565b600181811c90821680614aed57607f821691505b60208210811415614b27577f4e487b7100000000000000000000000000000000000000000000000000000000600052602260045260246000fd5b50919050565b7f4e487b7100000000000000000000000000000000000000000000000000000000600052601160045260246000fd5b6000817fffffffffffffffffffffffffffffffffffffffffffffffffffffffffffffffff0483118215151615614b9457614b94614b2d565b500290565b7f4e487b7100000000000000000000000000000000000000000000000000000000600052601260045260246000fd5b600082614bd757614bd7614b99565b500490565b600060208284031215614bee57600080fd5b5051919050565b60008219821115614c0857614c08614b2d565b500190565b60007fffffffffffffffffffffffffffffffffffffffffffffffffffffffffffffffff821415614c3f57614c3f614b2d565b5060010190565b600082821015614c5857614c58614b2d565b500390565b600060208284031215614c6f57600080fd5b8151610bb581614937565b60008351614c8c81846020880161479b565b835190830190614ca081836020880161479b565b01949350505050565b600082614cb857614cb8614b99565b500690565b7f4e487b7100000000000000000000000000000000000000000000000000000000600052603260045260246000fd5b60006001600160a01b03808716835280861660208401525083604083015260806060830152614d1e60808301846147c7565b9695505050505050565b600060208284031215614d3a57600080fd5b8151610bb581614750565b60008251614d5781846020870161479b565b919091019291505056fea2646970667358221220e96c9839905b49caf3711e40f9c6a5f327a1c89ee248a1b4610115ed9960968364736f6c634300080a0033",
  "linkReferences": {},
  "deployedLinkReferences": {}
}